:0600000002106F02006B0C
:03000B0002006B85
:0300130002006B7D
:03001B0002006B75
:0300230002006B6D
:03002B0002006B65
:0300330002006B5D
:03003B0002006B55
:0300430002006B4D
:03004B0002006B45
:0300530002006B3D
:03005B0002006B35
:0300630002006B2D
:01006B003262
:0900800002006B0002006B00029B
:08008900006B0002006B000295
:08009100006B0002006B00028D
:08009900006B0002006B000285
:0800A100006B0002006B00027D
:0800A900006B0002006B000275
:0700B100006B0002006B0070
:0901000002006B0002006B00021A
:08010900006B0002006B000214
:08011100006B0002006B00020C
:08011900006B0002006B000204
:08012100006B0002006B0002FC
:08012900006B0002006B0002F4
:08013100006B0002006B0002EC
:08013900006B0002006B0002E4
:08014100006B0002006B0002DC
:08014900006B0002006B0002D4
:08015100006B0002006B0002CC
:08015900006B0002006B0002C4
:08016100006B0002006B0002BC
:08016900006B0002006B0002B4
:08017100006B0002006B0002AC
:07017900006B0002006B00A7
:0CE0000012010002FFFFFF40FEFF0800BD
:06E00C00000C01020401FA
:0AE012000A060002FFFFFF400100B4
:0EE01C0009023C0001010080320904000006E8
:0EE02A00FFFFFF03070501024000000705810C
:0EE03800024000000705020200020007050476
:0EE0460002000200070586020002000705889E
:04E0540002000200C4
:0CE0580012010002FFFFFF40FEFF080065
:06E06400000C01020001A6
:0AE06A000A060002FFFFFF4001005C
:0EE074000902120001010080320904000000C0
:04E08200FFFFFF039A
:01E086000594
:02E0870092E025
:02E0890098E01D
:02E08B00C0E0F3
:02E08D00DAE0D7
:02E08F00FCE0B3
:06E0920006030000090472
:0EE098002803530052004C002D004C004C0099
:0EE0A6004300200051005500490043004B008C
:0CE0B400530049004C005600450052008B
:0EE0C0001A035100530031005200200052009C
:0AE0CE0045004300560052002000F8
:02E0D8003F0007
:0EE0DA00220343006F006D006D0061006E00B8
:0EE0E800640020002600200053007400610038
:06E0F600740075007300C8
:02E0FC0012030D
:0EE0FE003200300031003100300032003100BD
:02E10C003100E0
:08018000780FE84400600C79DF
:0C0188000190E10EE4F0A3D8FCD9FAD0FD
:0E01940083D082F6D8FDC082C083758200221F
:0310770002107FE5
:0310920002107ACF
:05107A001204CC80FE11
:0501A20090E68BE4F083
:0901A70090E6A0E0FA20E1F82244
:0901B000AA82AB837440B51C0067
:0601B900500475820022D3
:0C01BF0090E6A2E0FC30E1047582002212
:0401CB007C007D0037
:0C01CF00AE1C7F00C3EC9EED64808FF03E
:0E01DB0063F08095F0501EEC24C0FEED34E77A
:0E01E900FFEC2AF582ED3BF583E0F88E828F65
:0901F70083F00CBC00D20D80CF96
:0A02000090E68FE51CF0851C8222B9
:03020A00C2072206
:05020D00300131750F06
:030212000E751056
:08021500E17511047582091264
:0D021D000A1EAA827B00BA041DBB001A75E0
:06022A001C0490E10E121D
:0D02300001B0AA827B00BA040ABB0007C21D
:04023D0000C2A42235
:02024100C200F9
:010243002298
:0A02440090E6B9E0FA740FB502006D
:05024E00500302035AF9
:07025300EA2A2A90025A7307
:07025A0002035A02035A02DD
:0602610002AE02035A0286
:06026700035A02028A02A4
:06026D00035A02035A02CD
:0602730002D502035A024D
:06027900035A0202F90223
:06027F00031502033B021F
:050285000340020356D6
:0C028A001201A290E6BAE0FA750C407573
:0A0296000DE790E68BE0F50E8A827A
:0A02A0001209BCE582600302035E50
:0402AA007582002237
:0C02AE0090E6BCE0FA6005BA021980037B
:0302BA00020599A1
:0C02BD001205D6AA82BA0106D201758291
:0202C900012210
:0602CB00C2017582002251
:0402D1007582002210
:0C02D5001201A290E6BAE0FA751C407518
:0A02E1001DE790E68BE0F51E8A820F
:0A02EB0012077FE582600302035E44
:0402F50075820022EC
:0E02F90090E6BAE0FABA010A90E67AE0FA441A
:0403070001F080532E
:0A030B0090E67AE0FA54FEF0804913
:0E03150090E6BAE0700890E6007402F0803BBB
:0E03230090E6BAE0FABA010890E600740AF01B
:02033100802B1F
:0803330090E6007412F0802333
:05033B00120A6E801E95
:0C0340001201A290E68BE0F51C90E74053
:0A034C001201B0E582700BF5822269
:04035600D2A48004A9
:04035A007582002286
:04035E007582012281
:0A03620090E6B9E0FABA8102801FAC
:06036C00BA83030203EE58
:05037200BA8402804284
:05037700BA8502805868
:06037C00BA860302041121
:06038200BA870302043EED
:0303880002045418
:0A038B0090E6BAE0FA751C40751DFB
:0C039500E790E6BEE0F51E8A821206BF6B
:0703A100E5827003F58222E2
:0E03A80090E68AE4F090E6BEE0FA90E68BF074
:0303B600020458E6
:0E03B90090E678E0FA53021890E740EAF090E0
:0D03C700E68AE4F090E68B7401F002045821
:0E03D40090E67AE0FA53020190E740EAF090DA
:0C03E200E68AE4F090E68B7401F0806A7B
:0D03EE0090E74074CBF090E7417443F0902D
:0E03FB00E742742EF090E743E4F090E68AF0BB
:0804090090E68B7404F08047BB
:0A04110090E6BAE0FA750F4075108E
:0C041B00E790E6BEE0F5118A82120A1E8E
:07042700E5827003F582225B
:0E042E0090E68AE4F090E6BEE0FA90E68BF0ED
:02043C00801A24
:0C043E00A202E433FA90E740F090E68A56
:0A044A00E4F090E68B7401F08004EA
:04045400758200228B
:040458007582012286
:0B045C0090E6B8E0FABAC003020362A9
:0B04670090E6B8E0FABA40030202443D
:04047200758200226D
:060476003006031210160F
:06047C0030070312020A22
:080482003000F112020D80ECC4
:06048A0053917FD2003205
:06049000C2EB751C8A7529
:060496001D0475825B12DB
:05049C0007F8D2EB227D
:0304A100C2CF3295
:0404A400750912754F
:0304A8000AE175F1
:0904AB000805750B017582511260
:0804B400056590E112E0FA90E9
:0C04BC00E00CF090E064EAF074302A904C
:0404C800E0D8F02266
:0604CC00120B76C201C212
:0704D20000C2AF1204A412E6
:0604D9000908120D0D12CE
:0C04DF000490D2EAD2EBD2AF12069B02CE
:0204EB00047695
:0204ED00AA82E1
:0504EF0010990280FBE2
:0304F4008A9922C0
:0804F700AA82AB83ACF07D008A
:0E04FF008D060DEE2AFEE43BFF8C008E828FF0
:0E050D008388F0121053FEFF60178F82C00229
:0E051B00C003C004C0051204EDD005D004D00A
:0505290003D00280D1A7
:01052E0022AA
:03052F000209B30B
:02053200222283
:02053400AA8299
:0A053600C002120532D002DAF722EB
:0305400090FB50DD
:09054300A3E582458370F9222230
:04054C00AA82AB8351
:0E055000C002C003120540D003D0021ABAFF49
:02055E00011B7F
:05056000EA4B70EC22E3
:0B056500AA8290E11BE4F090E11CE58D
:0405700008F0751CFE
:030574001B751DD7
:09057700E1751E028A82C0021225
:0B058000077FE582D0027003F58222A5
:04058B0085091C853D
:03058F000A1D85BD
:050592000B1E8A82022D
:0205970006BF9D
:02106F00C202BB
:0C059900C20275B6FFC2A0C2A275822883
:0705A500120534D2A27A0016
:0E05AC0020A3140A758232C002120534D00258
:0305BA00BAFF0085
:0605BD0040ED75820022F2
:0E05C3009000001205FD90E65EE04420F0D2AC
:0505D100027582012209
:0C05D60090E65EE054DFF0C202900001ED
:0E05E2001205FD75823212053420A3047582C5
:0205F0000022E7
:0705F20030A1047582012213
:0405F90075820022E5
:0E05FD00AA82AB83EA4B703790E61374A2F02B
:0E060B000090E6047480F00090E6047484F021
:0E0619000090E6497484F00090E6497484F085
:0E0627000090E619E4F00090E6197401F0006E
:0706350090E604E4F000224E
:0E063C00BA0139BB003690E61374A2F00090AC
:0E064A00E6047480F00090E6047484F00090E2
:0E065800E6497484F00090E6497484F0009046
:0D066600E619E4F00090E6197411F0009020
:05067300E604E4F000C4
:01067800225F
:0806790090E6A0E04401F0222C
:0E068100AA8274805AC423541FFB740F5A902F
:0C068F00E6834BF090E683E04420F0226C
:0E069B0090E680E0440AF090012C12054C908D
:0E06A900E65D74FFF090E65F74FFF05391EF92
:0806B70090E680E054F7F02208
:0A06BF00AA82E51E70047582012274
:0E06C90090E678E0FB20E6F890E6787480F08A
:0A06D700EA2AFA90E67974014AF06D
:0E06E10090E678E0FA30E0F890E678E0FA3043
:0506EF00E203020774A4
:0B06F40090E678E0FA20E103020774B2
:0C06FF007401B51E0890E678E0FA442073
:01070B00F0FD
:09070C0090E679E0F51FAA1CAB90
:030715001DAC1EFA
:040718001CEC603045
:0E071C0090E678E0FD30E0F890E678E0FD2011
:0D072A00E248BC010890E678E0FD4420F0B4
:0E07370090E679E0FD8A828B83F0A3AA82AB64
:07074500838A1C8B1D80CC90
:0E074C0090E678E0FA30E0F890E678E0FA20E7
:0C075A00E21890E678E04440F0AA1CABE6
:0C0766001D90E679E08A828B83F075829A
:02077200012262
:0B07740090E678E04440F0758200221F
:02077F00AA824C
:0E07810090E678E0FB20E6F890E6787480F0D1
:07078F00EA2AFA90E679F076
:0E07960090E678E0FA30E0F890E678E0FA209D
:0C07A400E24790E678E0FA30E13FAA1C42
:0407B000AB1DAC1EB3
:0E07B400EC602B8A828B83E0FDA3AA82AB83CC
:0607C20090E679EDF01C49
:0E07C80090E678E0FD30E0F890E678E0FD2065
:0C07D600E21590E678E0FD20E1D4800BF5
:0B07E20090E678E04440F075820122B0
:0B07ED0090E678E04440F075820022A6
:0507F800AA82BA030013
:0707FD0040077463B5020020
:020804005001A1
:0108060022CF
:09080700740F5AFBBB03028007C9
:07081000740F5AFBBB0B45FE
:0A081700A2AF9203C2AFEA2400F57D
:0C08210082E43400F5837402F07B007464
:0C082D00012AFCE43BFDEC2400F582ED08
:0A0839003400F583E51DFCF07402A5
:0C0843002AFAE43BFBEA2400F582EB34C7
:0A084F0000F583AA1C7B00EAF0A26A
:030859000392AF58
:01085C002279
:07085D00AA82747CB50200C1
:030864005001221E
:06086700EA5403600122C7
:0A086D00A2AF9204C2AFEA2400F526
:0C08770082E43401F5837402F07B00740D
:0C088300012AFCE43BFDEC2400F582EDB2
:0A088F003401F583E51DF074022A20
:0B089900FAE43BFBEA2400F582EB349C
:0808A40001F583AA1CEAF0A291
:0408AC000492AF22E1
:0508B000AA82BA8000DD
:0708B500400774B4B5020016
:0208BC005001E9
:0108BE002217
:0608BF00EA54036001226F
:0A08C500A2AF9205C2AFEA2480F54D
:0C08CF0082E43400F5837402F07B0074B6
:0C08DB00012AFCE43BFDEC2480F582EDDA
:0A08E7003400F583E51DF074022AC9
:0B08F100FAE43BFBEA2480F582EB34C4
:0808FC0000F583AA1CEAF0A23A
:040904000592AF2287
:08090800C2E8C2EA751C00758B
:060910001D017582431277
:0409160007F8751C4D
:03091A0080751DC8
:0C091D00007582531207F80090E650E4C9
:0E092900F00090E652E4F00090E654E4F00096
:0E09370090E656E4F00090E65174FFF0009058
:0E094500E65374FFF00090E65574FFF000904A
:0E095300E65774FFF00090E658E4F090E65985
:0E09610074FFF090E65AE4F090E65B74FFF04D
:0E096F0090E65CE4F090E65D74FFF090E65ECA
:0E097D00E4F090E65F74FFF00090E660E4F0B6
:0D098B000090E66174FFF090E662E4F090E9
:0E099800E66374FFF090E665E4F090E66874A4
:0D09A6000BF05391EF5391BFD2E8D2EA223B
:0409B30075B6FF22F4
:0509B700D283C283227F
:0A09BC00AA82E50E605474FB250EBC
:0E09C600404E75B6FFD2808AB1D2811209B7B9
:0409D4007A007B002A
:0C09D800AC0E7D00C3EA9CEB64808DF047
:0C09E40063F08095F0501FEA250CF582AE
:0C09F000EB350DF583E0F5B1C002C0034B
:0E09FC001209B7D003D0020ABA00D10B80CE88
:0C0A0A00C2811209B7C28075B6008004DA
:040A160075820022C3
:040A1A00850E8222A1
:0E0A1E00AA8275B6FFC2808AB1D2811209B7D2
:070A2C0075B6007A007B00A3
:0C0A3300AC117D00C3EA9CEB64808DF0E8
:0E0A3F0063F08095F0501FC002C0031209B78B
:0B0A4D00D003D002EA250FF582EB3544
:0C0A580010F583E5B1F00ABA00D10B8064
:010A6400CEC3
:090A6500C2811209B78511822239
:0E0A6E0090E60B7403F00090E61074A0F00008
:0E0A7C0090E61174A0F00090E61274A2F00053
:0E0A8A0090E6047480F00090E6047482F000A0
:0E0A980090E6497482F00090E6497482F00006
:0E0AA60090E618E4F00090E6187411F000904D
:0D0AB400E604E4F00090E61374A2F0009058
:0E0AC100E6047480F00090E6047484F0009067
:0E0ACF00E6497484F00090E6497484F00090CB
:0D0ADD00E619E4F00090E6197411F00090A5
:0D0AEA00E604E4F00090E61474E2F00090E1
:0E0AF700E6047480F00090E6047486F000902F
:0E0B0500E604E4F00090E61AE4F00090E61A30
:0E0B13007409F00090E6247402F00090E625CC
:0E0B2100E4F00090E61574E2F00090E6047433
:0E0B2F0080F00090E6047488F00090E604E484
:0E0B3D00F00090E61BE4F00090E61B7409F057
:0E0B4B000090E6267402F00090E627E4F00029
:0D0B590090E609E4F00090E602E4F0009060
:0E0B6600E603E4F00043AF010090E68AE4F0FD
:020B740000225D
:0E0B760090E6007412F0758E0090E60174E3B4
:0E0B8400F075800075B20B75A00475B4F575A0
:0E0B9200B10075B6FF120A6E759850438920A7
:0A0BA000758DB2D28ED29902052F96
:010BAA002228
:061071007512007513006A
:0A0BAB0090E680E0FA30E7197514B7
:030BB500007515B3
:030BB800E07516CF
:030BBB0012751799
:030BBE00E07518C7
:030BC1001C751987
:030BC400E0751ABF
:030BC70074751B27
:020BCA00E02227
:040BCC0075145875CF
:030BD00015E075B8
:030BD300166A752A
:030BD60017E075B0
:030BD90018747518
:030BDC0019E075A8
:030BDF001A1C7568
:030BE2001BE022F3
:090BE5005391EF75A100D2063214
:0C0BEE00C021C0E0C0F0C082C083C00283
:0E0BFA00C003C004C005C006C007C000C00193
:0E0C0800C0D075D0005391EF75A100120BAB58
:0E0C1600D0D0D001D000D007D006D005D00439
:0D0C2400D003D002D083D082D0F0D0E0D039
:020C310021326E
:0C0C3300C021C0E0C0F0C082C083C0023D
:0E0C3F00C003C004C005C006C007C000C0014D
:0E0C4D00C0D075D0005391EF75A100120BAB13
:0E0C5B00D0D0D001D000D007D006D005D004F4
:0D0C6900D003D002D083D082D0F0D0E0D0F4
:020C7600213229
:0E0C7800C0E0C0F0C082C083C002C003C00450
:0E0C8600C005C0D075D0005391EF75A10030AD
:0C0C940002527A007BF48B9A7A007BF409
:0E0CA0008A9B90E694E0FB7A0090E695E0FCDB
:0E0CAE007D00EC2AFAED3BFBC3E49A74808BC8
:0C0CBC00F063F08095F050247C007D0077
:0E0CC800C3EC9AED64808BF063F08095F050E1
:0E0CD6001190E67BE0F5B1D2A0C2A00CBC00EC
:040CE400E30D80E0BC
:0E0CE80090E6497484F0000000D0D0D005D012
:0E0CF60004D003D002D083D082D0F0D0E03200
:090D04005391EF75A100D20732F2
:050D0D00120BAB751C88
:030D1200E5751D67
:080D15000B75820012085D75E8
:030D1D001CEE7554
:060D20001D0B758210128C
:040D2600085D751CD3
:030D2A0033751D01
:080D2D000C75821412085D75BB
:030D35001C7875B2
:060D38001D0C758234124F
:040D3E00085D751CBB
:030D420004751D18
:0C0D45000D75822812085D90E65E7404B3
:080D5100F090E65C7431F02221
:0A0D5900AA8253027F7408B502005D
:060D63005004758200221D
:070D6900BA010475820122AA
:080D7000530201E4BA00010482
:030D7800F58222DF
:0E0D7B00AA82BA010C90E6A1E0FB7C008B82FC
:030D89008C832236
:0E0D8C00BA810C90E6A2E0FB7C008B828C8387
:010D9A002236
:0E0D9B0053027FEA700C90E6A0E0FB7C008B18
:040DA900828C832293
:0E0DAD0090E6A3E0FB7C00EAC313FA7D00EAA7
:090DBB002BFBED3C8B82F5832239
:0D0DC40090E6B8E0FA53021FBA0002800565
:050DD100BA024580128A
:0A0DD60090E6BAE0FABA01028005C7
:050DE000BA02028003CD
:030DE5001206797A
:0E0DE80090E6BAE0FA702A90E6BCE0F58212BE
:0D0DF6000D59E582601A90E6BCE0F582120E
:0E0E03000D7BAA82AB83E0FC4304018A828B44
:050E110083ECF08003FA
:030E160012067948
:030E190002067955
:0D0E1C0090E6B8E0FA53021FBA000280050C
:050E2900BA0247800E33
:0B0E2E0090E6BAE0FABA010302067970
:030E390002067935
:0D0E3C0090E6BAE0702E90E6BCE0F5821260
:0D0E49000D59E582602190E6BCE0F58212B3
:0E0E56000D7BAA82AB83E0FC5304FE8A828BE4
:0C0E640083ECF090E6BCE0F58202068111
:030E7000020679FE
:030E7300020679FB
:0D0E760090E6B8E0FA53021FBA0002800AAD
:050E8300BA0102801B12
:050E8800BA025F802AA0
:0E0E8D0090E7407401F090E741E4F090E68AAF
:080E9B00F090E68B7402F022D6
:0E0EA30090E740E4F090E741F090E68AF0908E
:060EB100E68B7402F02242
:0E0EB70090E6BCE0F582120D59E582602390B2
:0E0EC500E6BCE0F582120D7BE0FA53020190CC
:0E0ED300E740EAF090E741E4F090E68AF09004
:060EE100E68B7402F02212
:030EE70002067987
:030EEA0002067984
:0A0EED0090E6BBE0FABA010280179C
:050EF700BA0202803088
:050EFC00BA0302804969
:050F0100BA0602801792
:050F0600BA0702803073
:030F0B00020F7D55
:0A0F0E00AA14AB1590E6B3EBF090C7
:050F1800E6B4EAF0223E
:0A0F1D00AA16AB1790E6B3EBF090B4
:050F2700E6B4EAF0222F
:0A0F2C00AA18AB1990E6B3EBF090A1
:050F3600E6B4EAF02220
:0A0F3B00AA1AAB1B90E6B3EBF0908E
:050F4500E6B4EAF02211
:0E0F4A0090E6BAE0FA90E086E0FBEAB503001C
:050F58004003020679D0
:0C0F5D0090E6BAE075F002A42487F5824B
:0B0F690074E035F0F583E0FAA3E0909F
:090F7400E6B3F090E6B4EAF022C5
:030F7D00020679F0
:0C0F800090E6B9E0FA603BBA060280334C
:050F8C00BA0802800A12
:050F9100BA0A028017FE
:050F9600BA0C2F802AB7
:0C0F9B0090E740E512F090E68AE4F09048
:060FA700E68B7401F0224C
:0C0FAD0090E740E513F090E68AE4F09035
:060FB900E68B7401F0223A
:030FBF00020EED32
:030FC200020E76A6
:030FC500020679A8
:030FC800020679A5
:0A0FCB0090E6B9E0FABA01028027AF
:050FD500BA03028025B3
:050FDA00BA05028023AE
:050FDF00BA0702801EAC
:050FE400BA09028005BE
:050FE900BA0B168007A1
:070FEE0090E6BAE0F51222C3
:070FF50090E6BAE0F51322BB
:030FFC00020E1CC6
:030FFF00020DC41C
:031002000206796A
:0E10050090E6B8E0FA530280BA8003020F8032
:03101300020FCBFE
:0C101600C20690E6B8E0FA530260BA008F
:0310220002801E2B
:05102500BA2002800862
:05102A00BA400280083D
:03102F00BA60168E
:05103200120679801494
:0C10370012045CE582700D12067980083E
:051043001210058003FE
:0310480012067914
:08104B0090E6A0E04480F022D1
:06108C00E478FFF6D8FD38
:03107F0075812157
:0A108200120180E582600302107A7B
:0E10530020F71430F6148883A88220F507E6F3
:06106100A8837583002244
:03106700E280F72D
:03106A00E49322EA
:02106D00E0227F
:00000001FF
